{
    "_format": "hh-sol-artifact-1",
    "contractName": "INFT",
    "sourceName": "contracts/INFT.sol",
    "abi": [
        {
            "inputs": [
                {
                    "internalType": "string",
                    "name": "name",
                    "type": "string"
                },
                {
                    "internalType": "string",
                    "name": "symbol",
                    "type": "string"
                },
                {
                    "internalType": "address",
                    "name": "_oracle",
                    "type": "address"
                }
            ],
            "stateMutability": "nonpayable",
            "type": "constructor"
        },
        {
            "inputs": [
                {
                    "internalType": "address",
                    "name": "sender",
                    "type": "address"
                },
                {
                    "internalType": "uint256",
                    "name": "tokenId",
                    "type": "uint256"
                },
                {
                    "internalType": "address",
                    "name": "owner",
                    "type": "address"
                }
            ],
            "name": "ERC721IncorrectOwner",
            "type": "error"
        },
        {
            "inputs": [
                {
                    "internalType": "address",
                    "name": "operator",
                    "type": "address"
                },
                {
                    "internalType": "uint256",
                    "name": "tokenId",
                    "type": "uint256"
                }
            ],
            "name": "ERC721InsufficientApproval",
            "type": "error"
        },
        {
            "inputs": [
                {
                    "internalType": "address",
                    "name": "approver",
                    "type": "address"
                }
            ],
            "name": "ERC721InvalidApprover",
            "type": "error"
        },
        {
            "inputs": [
                {
                    "internalType": "address",
                    "name": "operator",
                    "type": "address"
                }
            ],
            "name": "ERC721InvalidOperator",
            "type": "error"
        },
        {
            "inputs": [
                {
                    "internalType": "address",
                    "name": "owner",
                    "type": "address"
                }
            ],
            "name": "ERC721InvalidOwner",
            "type": "error"
        },
        {
            "inputs": [
                {
                    "internalType": "address",
                    "name": "receiver",
                    "type": "address"
                }
            ],
            "name": "ERC721InvalidReceiver",
            "type": "error"
        },
        {
            "inputs": [
                {
                    "internalType": "address",
                    "name": "sender",
                    "type": "address"
                }
            ],
            "name": "ERC721InvalidSender",
            "type": "error"
        },
        {
            "inputs": [
                {
                    "internalType": "uint256",
                    "name": "tokenId",
                    "type": "uint256"
                }
            ],
            "name": "ERC721NonexistentToken",
            "type": "error"
        },
        {
            "inputs": [
                {
                    "internalType": "address",
                    "name": "owner",
                    "type": "address"
                }
            ],
            "name": "OwnableInvalidOwner",
            "type": "error"
        },
        {
            "inputs": [
                {
                    "internalType": "address",
                    "name": "account",
                    "type": "address"
                }
            ],
            "name": "OwnableUnauthorizedAccount",
            "type": "error"
        },
        {
            "anonymous": false,
            "inputs": [
                {
                    "indexed": true,
                    "internalType": "uint256",
                    "name": "tokenId",
                    "type": "uint256"
                },
                {
                    "indexed": false,
                    "internalType": "string",
                    "name": "name",
                    "type": "string"
                },
                {
                    "indexed": true,
                    "internalType": "address",
                    "name": "owner",
                    "type": "address"
                }
            ],
            "name": "AgentCreated",
            "type": "event"
        },
        {
            "anonymous": false,
            "inputs": [
                {
                    "indexed": true,
                    "internalType": "uint256",
                    "name": "tokenId",
                    "type": "uint256"
                },
                {
                    "indexed": false,
                    "internalType": "uint256",
                    "name": "newLevel",
                    "type": "uint256"
                }
            ],
            "name": "AgentLevelUp",
            "type": "event"
        },
        {
            "anonymous": false,
            "inputs": [
                {
                    "indexed": true,
                    "internalType": "address",
                    "name": "owner",
                    "type": "address"
                },
                {
                    "indexed": true,
                    "internalType": "address",
                    "name": "approved",
                    "type": "address"
                },
                {
                    "indexed": true,
                    "internalType": "uint256",
                    "name": "tokenId",
                    "type": "uint256"
                }
            ],
            "name": "Approval",
            "type": "event"
        },
        {
            "anonymous": false,
            "inputs": [
                {
                    "indexed": true,
                    "internalType": "address",
                    "name": "owner",
                    "type": "address"
                },
                {
                    "indexed": true,
                    "internalType": "address",
                    "name": "operator",
                    "type": "address"
                },
                {
                    "indexed": false,
                    "internalType": "bool",
                    "name": "approved",
                    "type": "bool"
                }
            ],
            "name": "ApprovalForAll",
            "type": "event"
        },
        {
            "anonymous": false,
            "inputs": [
                {
                    "indexed": true,
                    "internalType": "address",
                    "name": "previousOwner",
                    "type": "address"
                },
                {
                    "indexed": true,
                    "internalType": "address",
                    "name": "newOwner",
                    "type": "address"
                }
            ],
            "name": "OwnershipTransferred",
            "type": "event"
        },
        {
            "anonymous": false,
            "inputs": [
                {
                    "indexed": true,
                    "internalType": "address",
                    "name": "from",
                    "type": "address"
                },
                {
                    "indexed": true,
                    "internalType": "address",
                    "name": "to",
                    "type": "address"
                },
                {
                    "indexed": true,
                    "internalType": "uint256",
                    "name": "tokenId",
                    "type": "uint256"
                }
            ],
            "name": "Transfer",
            "type": "event"
        },
        {
            "inputs": [
                {
                    "internalType": "uint256",
                    "name": "",
                    "type": "uint256"
                }
            ],
            "name": "agents",
            "outputs": [
                {
                    "internalType": "string",
                    "name": "name",
                    "type": "string"
                },
                {
                    "internalType": "string",
                    "name": "description",
                    "type": "string"
                },
                {
                    "internalType": "uint256",
                    "name": "level",
                    "type": "uint256"
                },
                {
                    "internalType": "uint256",
                    "name": "experience",
                    "type": "uint256"
                },
                {
                    "internalType": "bool",
                    "name": "isActive",
                    "type": "bool"
                }
            ],
            "stateMutability": "view",
            "type": "function"
        },
        {
            "inputs": [
                {
                    "internalType": "address",
                    "name": "to",
                    "type": "address"
                },
                {
                    "internalType": "uint256",
                    "name": "tokenId",
                    "type": "uint256"
                }
            ],
            "name": "approve",
            "outputs": [],
            "stateMutability": "nonpayable",
            "type": "function"
        },
        {
            "inputs": [
                {
                    "internalType": "address",
                    "name": "owner",
                    "type": "address"
                }
            ],
            "name": "balanceOf",
            "outputs": [
                {
                    "internalType": "uint256",
                    "name": "",
                    "type": "uint256"
                }
            ],
            "stateMutability": "view",
            "type": "function"
        },
        {
            "inputs": [
                {
                    "internalType": "string",
                    "name": "name",
                    "type": "string"
                },
                {
                    "internalType": "string",
                    "name": "description",
                    "type": "string"
                }
            ],
            "name": "createAgent",
            "outputs": [
                {
                    "internalType": "uint256",
                    "name": "",
                    "type": "uint256"
                }
            ],
            "stateMutability": "nonpayable",
            "type": "function"
        },
        {
            "inputs": [
                {
                    "internalType": "uint256",
                    "name": "tokenId",
                    "type": "uint256"
                }
            ],
            "name": "getAgent",
            "outputs": [
                {
                    "components": [
                        {
                            "internalType": "string",
                            "name": "name",
                            "type": "string"
                        },
                        {
                            "internalType": "string",
                            "name": "description",
                            "type": "string"
                        },
                        {
                            "internalType": "uint256",
                            "name": "level",
                            "type": "uint256"
                        },
                        {
                            "internalType": "uint256",
                            "name": "experience",
                            "type": "uint256"
                        },
                        {
                            "internalType": "bool",
                            "name": "isActive",
                            "type": "bool"
                        }
                    ],
                    "internalType": "struct INFT.Agent",
                    "name": "",
                    "type": "tuple"
                }
            ],
            "stateMutability": "view",
            "type": "function"
        },
        {
            "inputs": [
                {
                    "internalType": "uint256",
                    "name": "tokenId",
                    "type": "uint256"
                }
            ],
            "name": "getApproved",
            "outputs": [
                {
                    "internalType": "address",
                    "name": "",
                    "type": "address"
                }
            ],
            "stateMutability": "view",
            "type": "function"
        },
        {
            "inputs": [
                {
                    "internalType": "address",
                    "name": "owner",
                    "type": "address"
                },
                {
                    "internalType": "address",
                    "name": "operator",
                    "type": "address"
                }
            ],
            "name": "isApprovedForAll",
            "outputs": [
                {
                    "internalType": "bool",
                    "name": "",
                    "type": "bool"
                }
            ],
            "stateMutability": "view",
            "type": "function"
        },
        {
            "inputs": [
                {
                    "internalType": "uint256",
                    "name": "tokenId",
                    "type": "uint256"
                }
            ],
            "name": "levelUpAgent",
            "outputs": [],
            "stateMutability": "nonpayable",
            "type": "function"
        },
        {
            "inputs": [],
            "name": "name",
            "outputs": [
                {
                    "internalType": "string",
                    "name": "",
                    "type": "string"
                }
            ],
            "stateMutability": "view",
            "type": "function"
        },
        {
            "inputs": [],
            "name": "oracle",
            "outputs": [
                {
                    "internalType": "address",
                    "name": "",
                    "type": "address"
                }
            ],
            "stateMutability": "view",
            "type": "function"
        },
        {
            "inputs": [],
            "name": "owner",
            "outputs": [
                {
                    "internalType": "address",
                    "name": "",
                    "type": "address"
                }
            ],
            "stateMutability": "view",
            "type": "function"
        },
        {
            "inputs": [
                {
                    "internalType": "uint256",
                    "name": "tokenId",
                    "type": "uint256"
                }
            ],
            "name": "ownerOf",
            "outputs": [
                {
                    "internalType": "address",
                    "name": "",
                    "type": "address"
                }
            ],
            "stateMutability": "view",
            "type": "function"
        },
        {
            "inputs": [],
            "name": "renounceOwnership",
            "outputs": [],
            "stateMutability": "nonpayable",
            "type": "function"
        },
        {
            "inputs": [
                {
                    "internalType": "address",
                    "name": "from",
                    "type": "address"
                },
                {
                    "internalType": "address",
                    "name": "to",
                    "type": "address"
                },
                {
                    "internalType": "uint256",
                    "name": "tokenId",
                    "type": "uint256"
                }
            ],
            "name": "safeTransferFrom",
            "outputs": [],
            "stateMutability": "nonpayable",
            "type": "function"
        },
        {
            "inputs": [
                {
                    "internalType": "address",
                    "name": "from",
                    "type": "address"
                },
                {
                    "internalType": "address",
                    "name": "to",
                    "type": "address"
                },
                {
                    "internalType": "uint256",
                    "name": "tokenId",
                    "type": "uint256"
                },
                {
                    "internalType": "bytes",
                    "name": "data",
                    "type": "bytes"
                }
            ],
            "name": "safeTransferFrom",
            "outputs": [],
            "stateMutability": "nonpayable",
            "type": "function"
        },
        {
            "inputs": [
                {
                    "internalType": "address",
                    "name": "operator",
                    "type": "address"
                },
                {
                    "internalType": "bool",
                    "name": "approved",
                    "type": "bool"
                }
            ],
            "name": "setApprovalForAll",
            "outputs": [],
            "stateMutability": "nonpayable",
            "type": "function"
        },
        {
            "inputs": [
                {
                    "internalType": "address",
                    "name": "_oracle",
                    "type": "address"
                }
            ],
            "name": "setOracle",
            "outputs": [],
            "stateMutability": "nonpayable",
            "type": "function"
        },
        {
            "inputs": [
                {
                    "internalType": "bytes4",
                    "name": "interfaceId",
                    "type": "bytes4"
                }
            ],
            "name": "supportsInterface",
            "outputs": [
                {
                    "internalType": "bool",
                    "name": "",
                    "type": "bool"
                }
            ],
            "stateMutability": "view",
            "type": "function"
        },
        {
            "inputs": [],
            "name": "symbol",
            "outputs": [
                {
                    "internalType": "string",
                    "name": "",
                    "type": "string"
                }
            ],
            "stateMutability": "view",
            "type": "function"
        },
        {
            "inputs": [
                {
                    "internalType": "uint256",
                    "name": "tokenId",
                    "type": "uint256"
                }
            ],
            "name": "tokenURI",
            "outputs": [
                {
                    "internalType": "string",
                    "name": "",
                    "type": "string"
                }
            ],
            "stateMutability": "view",
            "type": "function"
        },
        {
            "inputs": [
                {
                    "internalType": "address",
                    "name": "from",
                    "type": "address"
                },
                {
                    "internalType": "address",
                    "name": "to",
                    "type": "address"
                },
                {
                    "internalType": "uint256",
                    "name": "tokenId",
                    "type": "uint256"
                }
            ],
            "name": "transferFrom",
            "outputs": [],
            "stateMutability": "nonpayable",
            "type": "function"
        },
        {
            "inputs": [
                {
                    "internalType": "address",
                    "name": "newOwner",
                    "type": "address"
                }
            ],
            "name": "transferOwnership",
            "outputs": [],
            "stateMutability": "nonpayable",
            "type": "function"
        }
    ],
    "bytecode": "0x6080604052600160075534801561001557600080fd5b5060405161358f38038061358f833981810160405281019061003791906103c0565b3383838160009081610049919061066c565b508060019081610059919061066c565b505050600073ffffffffffffffffffffffffffffffffffffffff168173ffffffffffffffffffffffffffffffffffffffff16036100ce5760006040517f1e4fbdf70000000000000000000000000000000000000000000000000000000081526004016100c5919061074d565b60405180910390fd5b6100dd8161012760201b60201c565b5080600960006101000a81548173ffffffffffffffffffffffffffffffffffffffff021916908373ffffffffffffffffffffffffffffffffffffffff160217905550505050610768565b6000600660009054906101000a900473ffffffffffffffffffffffffffffffffffffffff16905081600660006101000a81548173ffffffffffffffffffffffffffffffffffffffff021916908373ffffffffffffffffffffffffffffffffffffffff1602179055508173ffffffffffffffffffffffffffffffffffffffff168173ffffffffffffffffffffffffffffffffffffffff167f8be0079c531659141344cd1fd0a4f28419497f9722a3daafe3b4186f6b6457e060405160405180910390a35050565b6000604051905090565b600080fd5b600080fd5b600080fd5b600080fd5b6000601f19601f8301169050919050565b7f4e487b7100000000000000000000000000000000000000000000000000000000600052604160045260246000fd5b6102548261020b565b810181811067ffffffffffffffff821117156102735761027261021c565b5b80604052505050565b60006102866101ed565b9050610292828261024b565b919050565b600067ffffffffffffffff8211156102b2576102b161021c565b5b6102bb8261020b565b9050602081019050919050565b60005b838110156102e65780820151818401526020810190506102cb565b60008484015250505050565b600061030561030084610297565b61027c565b90508281526020810184848401111561032157610320610206565b5b61032c8482856102c8565b509392505050565b600082601f83011261034957610348610201565b5b81516103598482602086016102f2565b91505092915050565b600073ffffffffffffffffffffffffffffffffffffffff82169050919050565b600061038d82610362565b9050919050565b61039d81610382565b81146103a857600080fd5b50565b6000815190506103ba81610394565b92915050565b6000806000606084860312156103d9576103d86101f7565b5b600084015167ffffffffffffffff8111156103f7576103f66101fc565b5b61040386828701610334565b935050602084015167ffffffffffffffff811115610424576104236101fc565b5b61043086828701610334565b9250506040610441868287016103ab565b9150509250925092565b600081519050919050565b7f4e487b7100000000000000000000000000000000000000000000000000000000600052602260045260246000fd5b6000600282049050600182168061049d57607f821691505b6020821081036104b0576104af610456565b5b50919050565b60008190508160005260206000209050919050565b60006020601f8301049050919050565b600082821b905092915050565b6000600883026105187fffffffffffffffffffffffffffffffffffffffffffffffffffffffffffffffff826104db565b61052286836104db565b95508019841693508086168417925050509392505050565b6000819050919050565b6000819050919050565b600061056961056461055f8461053a565b610544565b61053a565b9050919050565b6000819050919050565b6105838361054e565b61059761058f82610570565b8484546104e8565b825550505050565b600090565b6105ac61059f565b6105b781848461057a565b505050565b5b818110156105db576105d06000826105a4565b6001810190506105bd565b5050565b601f821115610620576105f1816104b6565b6105fa846104cb565b81016020851015610609578190505b61061d610615856104cb565b8301826105bc565b50505b505050565b600082821c905092915050565b600061064360001984600802610625565b1980831691505092915050565b600061065c8383610632565b9150826002028217905092915050565b6106758261044b565b67ffffffffffffffff81111561068e5761068d61021c565b5b6106988254610485565b6106a38282856105df565b600060209050601f8311600181146106d657600084156106c4578287015190505b6106ce8582610650565b865550610736565b601f1984166106e4866104b6565b60005b8281101561070c578489015182556001820191506020850194506020810190506106e7565b868310156107295784890151610725601f891682610632565b8355505b6001600288020188555050505b505050505050565b61074781610382565b82525050565b6000602082019050610762600083018461073e565b92915050565b612e18806107776000396000f3fe608060405234801561001057600080fd5b50600436106101425760003560e01c8063715018a6116100b8578063a22cb4651161007c578063a22cb4651461038d578063b88d4fde146103a9578063c87b56dd146103c5578063cab01b17146103f5578063e985e9c514610411578063f2fde38b1461044157610142565b8063715018a61461030d5780637adbf973146103175780637dc0d1d0146103335780638da5cb5b1461035157806395d89b411461036f57610142565b80632de5aaf71161010a5780632de5aaf7146101fd5780633a97e40f1461022d57806342842e0e1461025d578063513856c8146102795780636352211e146102ad57806370a08231146102dd57610142565b806301ffc9a71461014757806306fdde0314610177578063081812fc14610195578063095ea7b3146101c557806323b872dd146101e1575b600080fd5b610161600480360381019061015c9190611fe0565b61045d565b60405161016e9190612028565b60405180910390f35b61017f61053f565b60405161018c91906120d3565b60405180910390f35b6101af60048036038101906101aa919061212b565b6105d1565b6040516101bc9190612199565b60405180910390f35b6101df60048036038101906101da91906121e0565b6105ed565b005b6101fb60048036038101906101f69190612220565b610603565b005b6102176004803603810190610212919061212b565b610705565b6040516102249190612358565b60405180910390f35b610247600480360381019061024291906124af565b6108cd565b6040516102549190612536565b60405180910390f35b61027760048036038101906102729190612220565b6109ee565b005b610293600480360381019061028e919061212b565b610a0e565b6040516102a4959493929190612551565b60405180910390f35b6102c760048036038101906102c2919061212b565b610b61565b6040516102d49190612199565b60405180910390f35b6102f760048036038101906102f291906125b2565b610b73565b6040516103049190612536565b60405180910390f35b610315610c2d565b005b610331600480360381019061032c91906125b2565b610c41565b005b61033b610c8d565b6040516103489190612199565b60405180910390f35b610359610cb3565b6040516103669190612199565b60405180910390f35b610377610cdd565b60405161038491906120d3565b60405180910390f35b6103a760048036038101906103a2919061260b565b610d6f565b005b6103c360048036038101906103be91906126ec565b610d85565b005b6103df60048036038101906103da919061212b565b610daa565b6040516103ec91906120d3565b60405180910390f35b61040f600480360381019061040a919061212b565b610e13565b005b61042b6004803603810190610426919061276f565b610f60565b6040516104389190612028565b60405180910390f35b61045b600480360381019061045691906125b2565b610ff4565b005b60007f80ac58cd000000000000000000000000000000000000000000000000000000007bffffffffffffffffffffffffffffffffffffffffffffffffffffffff1916827bffffffffffffffffffffffffffffffffffffffffffffffffffffffff1916148061052857507f5b5e139f000000000000000000000000000000000000000000000000000000007bffffffffffffffffffffffffffffffffffffffffffffffffffffffff1916827bffffffffffffffffffffffffffffffffffffffffffffffffffffffff1916145b8061053857506105378261107a565b5b9050919050565b60606000805461054e906127de565b80601f016020809104026020016040519081016040528092919081815260200182805461057a906127de565b80156105c75780601f1061059c576101008083540402835291602001916105c7565b820191906000526020600020905b8154815290600101906020018083116105aa57829003601f168201915b5050505050905090565b60006105dc826110e4565b506105e68261116c565b9050919050565b6105ff82826105fa6111a9565b6111b1565b5050565b600073ffffffffffffffffffffffffffffffffffffffff168273ffffffffffffffffffffffffffffffffffffffff16036106755760006040517f64a0ae9200000000000000000000000000000000000000000000000000000000815260040161066c9190612199565b60405180910390fd5b600061068983836106846111a9565b6111c3565b90508373ffffffffffffffffffffffffffffffffffffffff168173ffffffffffffffffffffffffffffffffffffffff16146106ff578382826040517f64283d7b0000000000000000000000000000000000000000000000000000000081526004016106f69392919061280f565b60405180910390fd5b50505050565b61070d611f43565b610716826113dd565b610755576040517f08c379a000000000000000000000000000000000000000000000000000000000815260040161074c90612892565b60405180910390fd5b600860008381526020019081526020016000206040518060a0016040529081600082018054610783906127de565b80601f01602080910402602001604051908101604052809291908181526020018280546107af906127de565b80156107fc5780601f106107d1576101008083540402835291602001916107fc565b820191906000526020600020905b8154815290600101906020018083116107df57829003601f168201915b50505050508152602001600182018054610815906127de565b80601f0160208091040260200160405190810160405280929190818152602001828054610841906127de565b801561088e5780601f106108635761010080835404028352916020019161088e565b820191906000526020600020905b81548152906001019060200180831161087157829003601f168201915b5050505050815260200160028201548152602001600382015481526020016004820160009054906101000a900460ff1615151515815250509050919050565b600080600760008154809291906108e3906128e1565b9190505590506108f3338261141e565b6040518060a001604052808581526020018481526020016001815260200160008152602001600115158152506008600083815260200190815260200160002060008201518160000190816109479190612ad5565b50602082015181600101908161095d9190612ad5565b50604082015181600201556060820151816003015560808201518160040160006101000a81548160ff0219169083151502179055509050503373ffffffffffffffffffffffffffffffffffffffff16817fa2bad51fd096fded505c462668af1424620df54cefdffc9ef304df0f2883c59c866040516109dc91906120d3565b60405180910390a38091505092915050565b610a0983838360405180602001604052806000815250610d85565b505050565b6008602052806000526040600020600091509050806000018054610a31906127de565b80601f0160208091040260200160405190810160405280929190818152602001828054610a5d906127de565b8015610aaa5780601f10610a7f57610100808354040283529160200191610aaa565b820191906000526020600020905b815481529060010190602001808311610a8d57829003601f168201915b505050505090806001018054610abf906127de565b80601f0160208091040260200160405190810160405280929190818152602001828054610aeb906127de565b8015610b385780601f10610b0d57610100808354040283529160200191610b38565b820191906000526020600020905b815481529060010190602001808311610b1b57829003601f168201915b5050505050908060020154908060030154908060040160009054906101000a900460ff16905085565b6000610b6c826110e4565b9050919050565b60008073ffffffffffffffffffffffffffffffffffffffff168273ffffffffffffffffffffffffffffffffffffffff1603610be65760006040517f89c62b64000000000000000000000000000000000000000000000000000000008152600401610bdd9190612199565b60405180910390fd5b600360008373ffffffffffffffffffffffffffffffffffffffff1673ffffffffffffffffffffffffffffffffffffffff168152602001908152602001600020549050919050565b610c35611517565b610c3f600061159e565b565b610c49611517565b80600960006101000a81548173ffffffffffffffffffffffffffffffffffffffff021916908373ffffffffffffffffffffffffffffffffffffffff16021790555050565b600960009054906101000a900473ffffffffffffffffffffffffffffffffffffffff1681565b6000600660009054906101000a900473ffffffffffffffffffffffffffffffffffffffff16905090565b606060018054610cec906127de565b80601f0160208091040260200160405190810160405280929190818152602001828054610d18906127de565b8015610d655780601f10610d3a57610100808354040283529160200191610d65565b820191906000526020600020905b815481529060010190602001808311610d4857829003601f168201915b5050505050905090565b610d81610d7a6111a9565b8383611664565b5050565b610d90848484610603565b610da4610d9b6111a9565b858585856117d3565b50505050565b6060610db5826110e4565b506000610dc0611984565b90506000815111610de05760405180602001604052806000815250610e0b565b80610dea8461199b565b604051602001610dfb929190612be3565b6040516020818303038152906040525b915050919050565b610e1c816113dd565b610e5b576040517f08c379a0000000000000000000000000000000000000000000000000000000008152600401610e5290612892565b60405180910390fd5b3373ffffffffffffffffffffffffffffffffffffffff16610e7b82610b61565b73ffffffffffffffffffffffffffffffffffffffff1614610ed1576040517f08c379a0000000000000000000000000000000000000000000000000000000008152600401610ec890612c53565b60405180910390fd5b60006008600083815260200190815260200160002090506001816002016000828254610efd9190612c73565b925050819055506064816003016000828254610f199190612c73565b92505081905550817fa3c436c1cc510e7b50e7b1aa523210358f1d9ab8da81d49a6f3d6df5e580fc6a8260020154604051610f549190612536565b60405180910390a25050565b6000600560008473ffffffffffffffffffffffffffffffffffffffff1673ffffffffffffffffffffffffffffffffffffffff16815260200190815260200160002060008373ffffffffffffffffffffffffffffffffffffffff1673ffffffffffffffffffffffffffffffffffffffff16815260200190815260200160002060009054906101000a900460ff16905092915050565b610ffc611517565b600073ffffffffffffffffffffffffffffffffffffffff168173ffffffffffffffffffffffffffffffffffffffff160361106e5760006040517f1e4fbdf70000000000000000000000000000000000000000000000000000000081526004016110659190612199565b60405180910390fd5b6110778161159e565b50565b60007f01ffc9a7000000000000000000000000000000000000000000000000000000007bffffffffffffffffffffffffffffffffffffffffffffffffffffffff1916827bffffffffffffffffffffffffffffffffffffffffffffffffffffffff1916149050919050565b6000806110f083611a69565b9050600073ffffffffffffffffffffffffffffffffffffffff168173ffffffffffffffffffffffffffffffffffffffff160361116357826040517f7e27328900000000000000000000000000000000000000000000000000000000815260040161115a9190612536565b60405180910390fd5b80915050919050565b60006004600083815260200190815260200160002060009054906101000a900473ffffffffffffffffffffffffffffffffffffffff169050919050565b600033905090565b6111be8383836001611aa6565b505050565b6000806111cf84611a69565b9050600073ffffffffffffffffffffffffffffffffffffffff168373ffffffffffffffffffffffffffffffffffffffff161461121157611210818486611c6b565b5b600073ffffffffffffffffffffffffffffffffffffffff168173ffffffffffffffffffffffffffffffffffffffff16146112a257611253600085600080611aa6565b6001600360008373ffffffffffffffffffffffffffffffffffffffff1673ffffffffffffffffffffffffffffffffffffffff168152602001908152602001600020600082825403925050819055505b600073ffffffffffffffffffffffffffffffffffffffff168573ffffffffffffffffffffffffffffffffffffffff1614611325576001600360008773ffffffffffffffffffffffffffffffffffffffff1673ffffffffffffffffffffffffffffffffffffffff168152602001908152602001600020600082825401925050819055505b846002600086815260200190815260200160002060006101000a81548173ffffffffffffffffffffffffffffffffffffffff021916908373ffffffffffffffffffffffffffffffffffffffff160217905550838573ffffffffffffffffffffffffffffffffffffffff168273ffffffffffffffffffffffffffffffffffffffff167fddf252ad1be2c89b69c2b068fc378daa952ba7f163c4a11628f55a4df523b3ef60405160405180910390a4809150509392505050565b60008073ffffffffffffffffffffffffffffffffffffffff166113ff83611a69565b73ffffffffffffffffffffffffffffffffffffffff1614159050919050565b600073ffffffffffffffffffffffffffffffffffffffff168273ffffffffffffffffffffffffffffffffffffffff16036114905760006040517f64a0ae920000000000000000000000000000000000000000000000000000000081526004016114879190612199565b60405180910390fd5b600061149e838360006111c3565b9050600073ffffffffffffffffffffffffffffffffffffffff168173ffffffffffffffffffffffffffffffffffffffff16146115125760006040517f73c6ac6e0000000000000000000000000000000000000000000000000000000081526004016115099190612199565b60405180910390fd5b505050565b61151f6111a9565b73ffffffffffffffffffffffffffffffffffffffff1661153d610cb3565b73ffffffffffffffffffffffffffffffffffffffff161461159c576115606111a9565b6040517f118cdaa70000000000000000000000000000000000000000000000000000000081526004016115939190612199565b60405180910390fd5b565b6000600660009054906101000a900473ffffffffffffffffffffffffffffffffffffffff16905081600660006101000a81548173ffffffffffffffffffffffffffffffffffffffff021916908373ffffffffffffffffffffffffffffffffffffffff1602179055508173ffffffffffffffffffffffffffffffffffffffff168173ffffffffffffffffffffffffffffffffffffffff167f8be0079c531659141344cd1fd0a4f28419497f9722a3daafe3b4186f6b6457e060405160405180910390a35050565b600073ffffffffffffffffffffffffffffffffffffffff168273ffffffffffffffffffffffffffffffffffffffff16036116d557816040517f5b08ba180000000000000000000000000000000000000000000000000000000081526004016116cc9190612199565b60405180910390fd5b80600560008573ffffffffffffffffffffffffffffffffffffffff1673ffffffffffffffffffffffffffffffffffffffff16815260200190815260200160002060008473ffffffffffffffffffffffffffffffffffffffff1673ffffffffffffffffffffffffffffffffffffffff16815260200190815260200160002060006101000a81548160ff0219169083151502179055508173ffffffffffffffffffffffffffffffffffffffff168373ffffffffffffffffffffffffffffffffffffffff167f17307eab39ab6107e8899845ad3d59bd9653f200f220920489ca2b5937696c31836040516117c69190612028565b60405180910390a3505050565b60008373ffffffffffffffffffffffffffffffffffffffff163b111561197d578273ffffffffffffffffffffffffffffffffffffffff1663150b7a02868685856040518563ffffffff1660e01b81526004016118329493929190612cfc565b6020604051808303816000875af192505050801561186e57506040513d601f19601f8201168201806040525081019061186b9190612d5d565b60015b6118f2573d806000811461189e576040519150601f19603f3d011682016040523d82523d6000602084013e6118a3565b606091505b5060008151036118ea57836040517f64a0ae920000000000000000000000000000000000000000000000000000000081526004016118e19190612199565b60405180910390fd5b805181602001fd5b63150b7a0260e01b7bffffffffffffffffffffffffffffffffffffffffffffffffffffffff1916817bffffffffffffffffffffffffffffffffffffffffffffffffffffffff19161461197b57836040517f64a0ae920000000000000000000000000000000000000000000000000000000081526004016119729190612199565b60405180910390fd5b505b5050505050565b606060405180602001604052806000815250905090565b6060600060016119aa84611d2f565b01905060008167ffffffffffffffff8111156119c9576119c8612384565b5b6040519080825280601f01601f1916602001820160405280156119fb5781602001600182028036833780820191505090505b509050600082602001820190505b600115611a5e578080600190039150507f3031323334353637383961626364656600000000000000000000000000000000600a86061a8153600a8581611a5257611a51612d8a565b5b04945060008503611a09575b819350505050919050565b60006002600083815260200190815260200160002060009054906101000a900473ffffffffffffffffffffffffffffffffffffffff169050919050565b8080611adf5750600073ffffffffffffffffffffffffffffffffffffffff168273ffffffffffffffffffffffffffffffffffffffff1614155b15611c13576000611aef846110e4565b9050600073ffffffffffffffffffffffffffffffffffffffff168373ffffffffffffffffffffffffffffffffffffffff1614158015611b5a57508273ffffffffffffffffffffffffffffffffffffffff168173ffffffffffffffffffffffffffffffffffffffff1614155b8015611b6d5750611b6b8184610f60565b155b15611baf57826040517fa9fbf51f000000000000000000000000000000000000000000000000000000008152600401611ba69190612199565b60405180910390fd5b8115611c1157838573ffffffffffffffffffffffffffffffffffffffff168273ffffffffffffffffffffffffffffffffffffffff167f8c5be1e5ebec7d5bd14f71427d1e84f3dd0314c0f7b2291e5b200ac8c7c3b92560405160405180910390a45b505b836004600085815260200190815260200160002060006101000a81548173ffffffffffffffffffffffffffffffffffffffff021916908373ffffffffffffffffffffffffffffffffffffffff16021790555050505050565b611c76838383611e82565b611d2a57600073ffffffffffffffffffffffffffffffffffffffff168373ffffffffffffffffffffffffffffffffffffffff1603611ceb57806040517f7e273289000000000000000000000000000000000000000000000000000000008152600401611ce29190612536565b60405180910390fd5b81816040517f177e802f000000000000000000000000000000000000000000000000000000008152600401611d21929190612db9565b60405180910390fd5b505050565b600080600090507a184f03e93ff9f4daa797ed6e38ed64bf6a1f0100000000000000008310611d8d577a184f03e93ff9f4daa797ed6e38ed64bf6a1f0100000000000000008381611d8357611d82612d8a565b5b0492506040810190505b6d04ee2d6d415b85acef81000000008310611dca576d04ee2d6d415b85acef81000000008381611dc057611dbf612d8a565b5b0492506020810190505b662386f26fc100008310611df957662386f26fc100008381611def57611dee612d8a565b5b0492506010810190505b6305f5e1008310611e22576305f5e1008381611e1857611e17612d8a565b5b0492506008810190505b6127108310611e47576127108381611e3d57611e3c612d8a565b5b0492506004810190505b60648310611e6a5760648381611e6057611e5f612d8a565b5b0492506002810190505b600a8310611e79576001810190505b80915050919050565b60008073ffffffffffffffffffffffffffffffffffffffff168373ffffffffffffffffffffffffffffffffffffffff1614158015611f3a57508273ffffffffffffffffffffffffffffffffffffffff168473ffffffffffffffffffffffffffffffffffffffff161480611efb5750611efa8484610f60565b5b80611f3957508273ffffffffffffffffffffffffffffffffffffffff16611f218361116c565b73ffffffffffffffffffffffffffffffffffffffff16145b5b90509392505050565b6040518060a00160405280606081526020016060815260200160008152602001600081526020016000151581525090565b6000604051905090565b600080fd5b600080fd5b60007fffffffff0000000000000000000000000000000000000000000000000000000082169050919050565b611fbd81611f88565b8114611fc857600080fd5b50565b600081359050611fda81611fb4565b92915050565b600060208284031215611ff657611ff5611f7e565b5b600061200484828501611fcb565b91505092915050565b60008115159050919050565b6120228161200d565b82525050565b600060208201905061203d6000830184612019565b92915050565b600081519050919050565b600082825260208201905092915050565b60005b8381101561207d578082015181840152602081019050612062565b60008484015250505050565b6000601f19601f8301169050919050565b60006120a582612043565b6120af818561204e565b93506120bf81856020860161205f565b6120c881612089565b840191505092915050565b600060208201905081810360008301526120ed818461209a565b905092915050565b6000819050919050565b612108816120f5565b811461211357600080fd5b50565b600081359050612125816120ff565b92915050565b60006020828403121561214157612140611f7e565b5b600061214f84828501612116565b91505092915050565b600073ffffffffffffffffffffffffffffffffffffffff82169050919050565b600061218382612158565b9050919050565b61219381612178565b82525050565b60006020820190506121ae600083018461218a565b92915050565b6121bd81612178565b81146121c857600080fd5b50565b6000813590506121da816121b4565b92915050565b600080604083850312156121f7576121f6611f7e565b5b6000612205858286016121cb565b925050602061221685828601612116565b9150509250929050565b60008060006060848603121561223957612238611f7e565b5b6000612247868287016121cb565b9350506020612258868287016121cb565b925050604061226986828701612116565b9150509250925092565b600082825260208201905092915050565b600061228f82612043565b6122998185612273565b93506122a981856020860161205f565b6122b281612089565b840191505092915050565b6122c6816120f5565b82525050565b6122d58161200d565b82525050565b600060a08301600083015184820360008601526122f88282612284565b915050602083015184820360208601526123128282612284565b915050604083015161232760408601826122bd565b50606083015161233a60608601826122bd565b50608083015161234d60808601826122cc565b508091505092915050565b6000602082019050818103600083015261237281846122db565b905092915050565b600080fd5b600080fd5b7f4e487b7100000000000000000000000000000000000000000000000000000000600052604160045260246000fd5b6123bc82612089565b810181811067ffffffffffffffff821117156123db576123da612384565b5b80604052505050565b60006123ee611f74565b90506123fa82826123b3565b919050565b600067ffffffffffffffff82111561241a57612419612384565b5b61242382612089565b9050602081019050919050565b82818337600083830152505050565b600061245261244d846123ff565b6123e4565b90508281526020810184848401111561246e5761246d61237f565b5b612479848285612430565b509392505050565b600082601f8301126124965761249561237a565b5b81356124a684826020860161243f565b91505092915050565b600080604083850312156124c6576124c5611f7e565b5b600083013567ffffffffffffffff8111156124e4576124e3611f83565b5b6124f085828601612481565b925050602083013567ffffffffffffffff81111561251157612510611f83565b5b61251d85828601612481565b9150509250929050565b612530816120f5565b82525050565b600060208201905061254b6000830184612527565b92915050565b600060a082019050818103600083015261256b818861209a565b9050818103602083015261257f818761209a565b905061258e6040830186612527565b61259b6060830185612527565b6125a86080830184612019565b9695505050505050565b6000602082840312156125c8576125c7611f7e565b5b60006125d6848285016121cb565b91505092915050565b6125e88161200d565b81146125f357600080fd5b50565b600081359050612605816125df565b92915050565b6000806040838503121561262257612621611f7e565b5b6000612630858286016121cb565b9250506020612641858286016125f6565b9150509250929050565b600067ffffffffffffffff82111561266657612665612384565b5b61266f82612089565b9050602081019050919050565b600061268f61268a8461264b565b6123e4565b9050828152602081018484840111156126ab576126aa61237f565b5b6126b6848285612430565b509392505050565b600082601f8301126126d3576126d261237a565b5b81356126e384826020860161267c565b91505092915050565b6000806000806080858703121561270657612705611f7e565b5b6000612714878288016121cb565b9450506020612725878288016121cb565b935050604061273687828801612116565b925050606085013567ffffffffffffffff81111561275757612756611f83565b5b612763878288016126be565b91505092959194509250565b6000806040838503121561278657612785611f7e565b5b6000612794858286016121cb565b92505060206127a5858286016121cb565b9150509250929050565b7f4e487b7100000000000000000000000000000000000000000000000000000000600052602260045260246000fd5b600060028204905060018216806127f657607f821691505b602082108103612809576128086127af565b5b50919050565b6000606082019050612824600083018661218a565b6128316020830185612527565b61283e604083018461218a565b949350505050565b7f4167656e7420646f6573206e6f74206578697374000000000000000000000000600082015250565b600061287c60148361204e565b915061288782612846565b602082019050919050565b600060208201905081810360008301526128ab8161286f565b9050919050565b7f4e487b7100000000000000000000000000000000000000000000000000000000600052601160045260246000fd5b60006128ec826120f5565b91507fffffffffffffffffffffffffffffffffffffffffffffffffffffffffffffffff820361291e5761291d6128b2565b5b600182019050919050565b60008190508160005260206000209050919050565b60006020601f8301049050919050565b600082821b905092915050565b60006008830261298b7fffffffffffffffffffffffffffffffffffffffffffffffffffffffffffffffff8261294e565b612995868361294e565b95508019841693508086168417925050509392505050565b6000819050919050565b60006129d26129cd6129c8846120f5565b6129ad565b6120f5565b9050919050565b6000819050919050565b6129ec836129b7565b612a006129f8826129d9565b84845461295b565b825550505050565b600090565b612a15612a08565b612a208184846129e3565b505050565b5b81811015612a4457612a39600082612a0d565b600181019050612a26565b5050565b601f821115612a8957612a5a81612929565b612a638461293e565b81016020851015612a72578190505b612a86612a7e8561293e565b830182612a25565b50505b505050565b600082821c905092915050565b6000612aac60001984600802612a8e565b1980831691505092915050565b6000612ac58383612a9b565b9150826002028217905092915050565b612ade82612043565b67ffffffffffffffff811115612af757612af6612384565b5b612b0182546127de565b612b0c828285612a48565b600060209050601f831160018114612b3f5760008415612b2d578287015190505b612b378582612ab9565b865550612b9f565b601f198416612b4d86612929565b60005b82811015612b7557848901518255600182019150602085019450602081019050612b50565b86831015612b925784890151612b8e601f891682612a9b565b8355505b6001600288020188555050505b505050505050565b600081905092915050565b6000612bbd82612043565b612bc78185612ba7565b9350612bd781856020860161205f565b80840191505092915050565b6000612bef8285612bb2565b9150612bfb8284612bb2565b91508190509392505050565b7f4e6f7420746865206f776e6572206f662074686973206167656e740000000000600082015250565b6000612c3d601b8361204e565b9150612c4882612c07565b602082019050919050565b60006020820190508181036000830152612c6c81612c30565b9050919050565b6000612c7e826120f5565b9150612c89836120f5565b9250828201905080821115612ca157612ca06128b2565b5b92915050565b600081519050919050565b600082825260208201905092915050565b6000612cce82612ca7565b612cd88185612cb2565b9350612ce881856020860161205f565b612cf181612089565b840191505092915050565b6000608082019050612d11600083018761218a565b612d1e602083018661218a565b612d2b6040830185612527565b8181036060830152612d3d8184612cc3565b905095945050505050565b600081519050612d5781611fb4565b92915050565b600060208284031215612d7357612d72611f7e565b5b6000612d8184828501612d48565b91505092915050565b7f4e487b7100000000000000000000000000000000000000000000000000000000600052601260045260246000fd5b6000604082019050612dce600083018561218a565b612ddb6020830184612527565b939250505056fea264697066735822122084c75be7c33782632a7c52d2cc6ac03d8dc939e5352c8a0b8f84d1a22dfe2f6064736f6c634300081c0033",
    "linkReferences": {},
    "deployedLinkReferences": {}
}